:100000000C9435000C945D000C945D000C945D0024
:100010000C945D000C945D000C945D000C945D00EC
:100020000C945D000C945D000C945D000C945D00DC
:100030000C945D000C945D000C945D000C945D00CC
:100040000C94AA020C945D000C9478020C94520259
:100050000C945D000C945D000C945D000C945D00AC
:100060000C945D000C945D00FE0311241FBECFEFC5
:10007000D8E0DEBFCDBF12E0A0E0B1E0E4EBF8E0F5
:1000800002C005900D92AA34B107D9F722E0AAE484
:10009000B2E001C01D92A03FB207E1F710E0C5E356
:1000A000D0E004C02197FE010E944D04C433D10763
:1000B000C9F70E94F4020C9458040C940000CF92EB
:1000C000DF92EF92FF920F931F93CF93DF936C0118
:1000D0007A018B01C0E0D0E0CE15DF0589F0D801B0
:1000E0006D918D01D601ED91FC910190F081E02D93
:1000F000C6010995892B11F47E0102C02196ECCF2F
:10010000C701DF91CF911F910F91FF90EF90DF908A
:10011000CF900895089580E090E00895FC01538DFC
:10012000448D252F30E0842F90E0821B930B5417D1
:1001300010F0CF96089501970895FC01918D828D5E
:10014000981761F0828DDF01A80FB11D5D968C912B
:10015000928D9F5F9F73928F90E008958FEF9FEF36
:100160000895FC01918D828D981731F0828DE80FF2
:10017000F11D858D90E008958FEF9FEF0895FC01AC
:10018000918D228D892F90E0805C9F4F821B910979
:100190008F739927089583E592E00E94BF0021E0C4
:1001A000892B09F420E0822F0895FC01848DDF0162
:1001B000A80FB11DA35ABF4F2C91848D90E00196DA
:1001C0008F739927848FA689B7892C93A089B189C9
:1001D0008C9180648C93938D848D981306C00288D3
:1001E000F389E02D80818F7D80830895EF92FF92C7
:1001F0000F931F93CF93DF93EC0181E0888F9B8D4A
:100200008C8D981305C0E889F989808185FD24C00B
:10021000F62E0B8D10E00F5F1F4F0F731127E02E8E
:100220008C8DE8120CC00FB607FCFACFE889F9896B
:10023000808185FFF5CFCE010E94D500F1CF8B8D57
:10024000FE01E80FF11DE35AFF4FF0820B8FEA89A0
:10025000FB898081806207C0EE89FF896083E8891D
:10026000F98980818064808381E090E0DF91CF9183
:100270001F910F91FF90EF900895CF93DF93EC01C2
:10028000888D8823C9F0EA89FB89808185FD05C0B6
:10029000A889B9898C9186FD0FC00FB607FCF5CFF0
:1002A000808185FFF2CFA889B9898C9185FFEDCF38
:1002B000CE010E94D500E7CFDF91CF91089580E075
:1002C00090E0892B29F00E94CB0081110C94000052
:1002D00008953FB7F89480914F0290915002A091F9
:1002E0005102B091520226B5A89B05C02F3F19F0CC
:1002F0000196A11DB11D3FBFBA2FA92F982F8827A6
:10030000820F911DA11DB11DBC01CD0142E0660F00
:10031000771F881F991F4A95D1F708958F929F9252
:10032000AF92BF92CF92DF92EF92FF920E9469014B
:100330004B015C018AE0C82ED12CE12CF12C0E94EB
:100340006901DC01CB0188199909AA09BB09883E1A
:100350009340A105B10558F021E0C21AD108E10887
:10036000F10888EE880E83E0981EA11CB11CC11410
:10037000D104E104F10419F7FF90EF90DF90CF90E2
:10038000BF90AF909F908F900895009769F0FC0107
:1003900001900020E9F73197AF01481B590BBC01D0
:1003A00083E592E00C945F0080E090E008950C9467
:1003B000C5018F929F92AF92BF920F931F93CF93DD
:1003C000DF93CDB7DEB7A1970FB6F894DEBF0FBEAF
:1003D000CDBF19A2423008F44AE08E010F5D1F4FD5
:1003E000842E912CA12CB12CA50194010E942B04E8
:1003F000E62FB901CA0101501109EA3014F4E05D99
:1004000001C0E95CD801EC93232B242B252B61F749
:10041000C8010E94C501A1960FB6F894DEBF0FBEB9
:10042000CDBFDF91CF911F910F91BF90AF909F9063
:100430008F900895CF92DF92EF92FF92CF93DF9348
:100440006C01990FEE08FF08F7FE1FC0E091530200
:10045000F09154020190F081E02D6DE283E592E08D
:100460000995EC0166277727CB016C197D098E0968
:100470009F094AE00E94D9018C0F9D1FDF91CF9107
:10048000FF90EF90DF90CF9008954AE0C701B6014A
:10049000DF91CF91FF90EF90DF90CF900C94D90136
:1004A0000E9453041F920F920FB60F9211242F93A4
:1004B0003F934F935F936F937F938F939F93AF93EC
:1004C000BF93EF93FF9383E592E00E94D500FF91E5
:1004D000EF91BF91AF919F918F917F916F915F91BC
:1004E0004F913F912F910F900FBE0F901F90189535
:1004F0001F920F920FB60F9211242F938F939F93F9
:10050000EF93FF93E0916302F09164028081E091A8
:100510006902F0916A0282FD12C0908180916C02A2
:100520008F5F8F7320916D02821751F0E0916C0202
:10053000F0E0ED5AFD4F958F80936C0201C08081F1
:10054000FF91EF919F918F912F910F900FBE0F9080
:100550001F9018951F920F920FB60F9211242F9390
:100560003F938F939F93AF93BF9380914B02909152
:100570004C02A0914D02B0914E0230914A0223E00C
:10058000230F2D3720F40196A11DB11D05C026E8CB
:10059000230F0296A11DB11D20934A0280934B02A6
:1005A00090934C02A0934D02B0934E0280914F0263
:1005B00090915002A0915102B09152020196A11D5A
:1005C000B11D80934F0290935002A0935102B093BB
:1005D0005202BF91AF919F918F913F912F910F90B8
:1005E0000FBE0F901F901895789484B5826084BDDB
:1005F00084B5816084BD85B5826085BD85B5816027
:1006000085BD80916E00816080936E0010928100A4
:10061000809181008260809381008091810081605F
:100620008093810080918000816080938000809120
:10063000B10084608093B1008091B00081608093AC
:10064000B00080917A00846080937A0080917A0073
:10065000826080937A0080917A00816080937A0032
:1006600080917A00806880937A001092C100E091B6
:100670006302F091640282E08083E0915F02F09176
:1006800060021082E0916102F091620280E1808359
:1006900010926B02E0916702F091680286E080831D
:1006A000E0916502F0916602808180618083E09133
:1006B0006502F0916602808188608083E091650226
:1006C000F0916602808180688083E0916502F091FC
:1006D000660280818F7D808382E192E00E94C50165
:1006E0008AE392E00E94C501C2E3D0E08DE392E08C
:1006F0000E94D7010E948E012197C1F702E111E00B
:100700007801C0E0D0E085E492E00E94D701F701D3
:1007100061917F0170E080E090E04AE00E94D901A1
:1007200087E492E00E94D701CE01CB3AD1051CF4B8
:100730008B5A9F4F02C08B5A9109FC01EE5EFE4F0F
:10074000608170E080E090E04AE00E94D90187E497
:1007500092E00E94D701CE01C635D1051CF4865522
:100760009F4F02C086559109FC01EE5EFE4F6081ED
:1007700070E080E090E04AE00E94D90183E492E0DA
:100780000E94D7010E948E012196C115F1E0DF077A
:1007900009F0B9CFC2E3D0E08DE392E00E94D70127
:1007A0000E948E012197C1F785E492E00E94D70153
:1007B000F801C1918F01D0E0CE010E941A0287E4B6
:1007C00092E00E94D701CE01845D9E4F0E941A02E2
:1007D00087E492E00E94D701CE01885A9D4F0E9483
:1007E0001A0283E492E00E94D7010E948E01F2E097
:1007F00002311F07C9F60E945F0176CFE3E5F2E000
:100800001382128288EE93E0A0E0B0E084839583A7
:10081000A683B78384E091E09183808385EC90E0A8
:100820009587848784EC90E09787868780EC90E0BA
:10083000918B808B81EC90E0938B828B82EC90E0AB
:10084000958B848B86EC90E0978B868B118E128E25
:10085000138E148E0895A1E21A2EAA1BBB1BFD0154
:100860000DC0AA1FBB1FEE1FFF1FA217B307E4078F
:10087000F50720F0A21BB30BE40BF50B661F771FE7
:10088000881F991F1A9469F76095709580959095C7
:100890009B01AC01BD01CF010895EE0FFF1F059034
:1008A000F491E02D099481E090E0F8940C945804C0
:0408B000F894FFCFEA
:1008B40000000000F6005F008E003D01BF009D00B7
:1008C400B100808386898C909396999C9FA2A5A859
:1008D400ABAEB1B3B6B9BCBFC1C4C7C9CCCED1D31A
:1008E400D5D8DADCDEE0E2E4E6E8EAEBEDEFF0F1BD
:1008F400F3F4F5F6F8F9FAFAFBFCFDFDFEFEFEFF53
:10090400FFFFFFFFFFFFFEFEFEFDFDFCFBFAFAF911
:10091400F8F6F5F4F3F1F0EFEDEBEAE8E6E4E2E003
:10092400DEDCDAD8D5D3D1CECCC9C7C4C1BFBCB9FB
:10093400B6B3B1AEABA8A5A29F9C999693908C89AF
:100944008683807D7A7774706D6A6764615E5B58B4
:1009540055524F4D4A4744413F3C393734322F2D8D
:100964002B28262422201E1C1A1816151311100FCA
:100974000D0C0B0A08070606050403030202020114
:100984000101010101010202020303040506060735
:10099400080A0B0C0D0F1011131516181A1C1E2023
:1009A400222426282B2D2F323437393C3F4144470B
:1009B4004A4D4F5255585B5E6164676A6D70747737
:1009C4007A7D73696E6520776176652C203320709B
:1009D40068617365202F2033206C696E65732C2049
:1009E400706C6F742074657374000D0A00243020D9
:0A09F4003020303B002400200000FA
:00000001FF
