:100000000C9435000C945D000C945D000C945D0024
:100010000C945D000C945D000C945D000C945D00EC
:100020000C945D000C945D000C945D000C945D00DC
:100030000C945D000C945D000C945D000C945D00CC
:100040000C94AA020C945D000C9478020C94520259
:100050000C945D000C945D000C945D000C945D00AC
:100060000C945D000C945D00FE0311241FBECFEFC5
:10007000D8E0DEBFCDBF12E0A0E0B1E0E4EBF8E0F5
:1000800002C005900D92AA34B107D9F722E0AAE484
:10009000B2E001C01D92A03FB207E1F710E0C5E356
:1000A000D0E004C02197FE010E944D04C433D10763
:1000B000C9F70E94F4020C9458040C940000CF92EB
:1000C000DF92EF92FF920F931F93CF93DF936C0118
:1000D0007A018B01C0E0D0E0CE15DF0589F0D801B0
:1000E0006D918D01D601ED91FC910190F081E02D93
:1000F000C6010995892B11F47E0102C02196ECCF2F
:10010000C701DF91CF911F910F91FF90EF90DF908A
:10011000CF900895089580E090E00895FC01538DFC
:10012000448D252F30E0842F90E0821B930B5417D1
:1001300010F0CF96089501970895FC01918D828D5E
:10014000981761F0828DDF01A80FB11D5D968C912B
:10015000928D9F5F9F73928F90E008958FEF9FEF36
:100160000895FC01918D828D981731F0828DE80FF2
:10017000F11D858D90E008958FEF9FEF0895FC01AC
:10018000918D228D892F90E0805C9F4F821B910979
:100190008F739927089583E592E00E94BF0021E0C4
:1001A000892B09F420E0822F0895FC01848DDF0162
:1001B000A80FB11DA35ABF4F2C91848D90E00196DA
:1001C0008F739927848FA689B7892C93A089B189C9
:1001D0008C9180648C93938D848D981306C00288D3
:1001E000F389E02D80818F7D80830895EF92FF92C7
:1001F0000F931F93CF93DF93EC0181E0888F9B8D4A
:100200008C8D981305C0E889F989808185FD24C00B
:10021000F62E0B8D10E00F5F1F4F0F731127E02E8E
:100220008C8DE8120CC00FB607FCFACFE889F9896B
:10023000808185FFF5CFCE010E94D500F1CF8B8D57
:10024000FE01E80FF11DE35AFF4FF0820B8FEA89A0
:10025000FB898081806207C0EE89FF896083E8891D
:10026000F98980818064808381E090E0DF91CF9183
:100270001F910F91FF90EF900895CF93DF93EC01C2
:10028000888D8823C9F0EA89FB89808185FD05C0B6
:10029000A889B9898C9186FD0FC00FB607FCF5CFF0
:1002A000808185FFF2CFA889B9898C9185FFEDCF38
:1002B000CE010E94D500E7CFDF91CF91089580E075
:1002C00090E0892B29F00E94CB0081110C94000052
:1002D00008953FB7F89480914F0290915002A091F9
:1002E0005102B091520226B5A89B05C02F3F19F0CC
:1002F0000196A11DB11D3FBFBA2FA92F982F8827A6
:10030000820F911DA11DB11DBC01CD0142E0660F00
:10031000771F881F991F4A95D1F708958F929F9252
:10032000AF92BF92CF92DF92EF92FF920E9469014B
:100330004B015C018AE0C82ED12CE12CF12C0E94EB
:100340006901DC01CB0188199909AA09BB09883E1A
:100350009340A105B10558F021E0C21AD108E10887
:10036000F10888EE880E83E0981EA11CB11CC11410
:10037000D104E104F10419F7FF90EF90DF90CF90E2
:10038000BF90AF909F908F900895009769F0FC0107
:1003900001900020E9F73197AF01481B590BBC01D0
:1003A00083E592E00C945F0080E090E008950C9467
:1003B000C5018F929F92AF92BF920F931F93CF93DD
:1003C000DF93CDB7DEB7A1970FB6F894DEBF0FBEAF
:1003D000CDBF19A2423008F44AE08E010F5D1F4FD5
:1003E000842E912CA12CB12CA50194010E942B04E8
:1003F000E62FB901CA0101501109EA3014F4E05D99
:1004000001C0E95CD801EC93232B242B252B61F749
:10041000C8010E94C501A1960FB6F894DEBF0FBEB9
:10042000CDBFDF91CF911F910F91BF90AF909F9063
:100430008F900895CF92DF92EF92FF92CF93DF9348
:100440006C01990FEE08FF08F7FE1FC0E091530200
:10045000F09154020190F081E02D6DE283E592E08D
:100460000995EC0166277727CB016C197D098E0968
:100470009F094AE00E94D9018C0F9D1FDF91CF9107
:10048000FF90EF90DF90CF9008954AE0C701B6014A
:10049000DF91CF91FF90EF90DF90CF900C94D90136
:1004A0000E9453041F920F920FB60F9211242F93A4
:1004B0003F934F935F936F937F938F939F93AF93EC
:1004C000BF93EF93FF9383E592E00E94D500FF91E5
:1004D000EF91BF91AF919F918F917F916F915F91BC
:1004E0004F913F912F910F900FBE0F901F90189535
:1004F0001F920F920FB60F9211242F938F939F93F9
:10050000EF93FF93E0916302F09164028081E091A8
:100510006902F0916A0282FD12C0908180916C02A2
:100520008F5F8F7320916D02821751F0E0916C0202
:10053000F0E0ED5AFD4F958F80936C0201C08081F1
:10054000FF91EF919F918F912F910F900FBE0F9080
:100550001F9018951F920F920FB60F9211242F9390
:100560003F938F939F93AF93BF9380914B02909152
:100570004C02A0914D02B0914E0230914A0223E00C
:10058000230F2D3720F40196A11DB11D05C026E8CB
:10059000230F0296A11DB11D20934A0280934B02A6
:1005A00090934C02A0934D02B0934E0280914F0263
:1005B00090915002A0915102B09152020196A11D5A
:1005C000B11D80934F0290935002A0935102B093BB
:1005D0005202BF91AF919F918F913F912F910F90B8
:1005E0000FBE0F901F901895789484B5826084BDDB
:1005F00084B5816084BD85B5826085BD85B5816027
:1006000085BD80916E00816080936E0010928100A4
:10061000809181008260809381008091810081605F
:100620008093810080918000816080938000809120
:10063000B10084608093B1008091B00081608093AC
:10064000B00080917A00846080937A0080917A0073
:10065000826080937A0080917A00816080937A0032
:1006600080917A00806880937A001092C100E091B6
:100670006302F091640282E08083E0915F02F09176
:1006800060021082E0916102F091620280E1808359
:1006900010926B02E0916702F091680286E080831D
:1006A000E0916502F0916602808180618083E09133
:1006B0006502F0916602808188608083E091650226
:1006C000F0916602808180688083E0916502F091FC
:1006D000660280818F7D808382E192E00E94C50165
:1006E0008AE392E00E94C501C2E3D0E08DE392E08C
:1006F0000E94D7010E948E012197C1F702E111E00B
:100700007801C0E0D0E085E492E00E94D701F701D3
:1007100061917F0170E080E090E04AE00E94D901A1
:1007200087E492E00E94D701CE01CB3AD1051CF4B8
:100730008B5A9F4F02C08B5A9109FC01EE5EFE4F0F
:10074000608170E080E090E04AE00E94D90187E497
:1007500092E00E94D701CE01C635D1051CF4865522
:100760009F4F02C086559109FC01EE5EFE4F6081ED
:1007700070E080E090E04AE00E94D90183E492E0DA
:100780000E94D7010E948E012196C115F1E0DF077A
:1007900009F0B9CFC2E3D0E08DE392E00E94D70127
:1007A0000E948E012197C1F785E492E00E94D70153
:1007B000F801C1918F01D0E0CE010E941A0287E4B6
:1007C00092E00E94D701CE01845D9E4F0E941A02E2
:1007D00087E492E00E94D701CE01885A9D4F0E9483
:1007E0001A0283E492E00E94D7010E948E01F2E097
:1007F00002311F07C9F60E945F0176CFE3E5F2E000
:100800001382128288EE93E0A0E0B0E084839583A7
:10081000A683B78384E091E09183808385EC90E0A8
:100820009587848784EC90E09787868780EC90E0BA
:10083000918B808B81EC90E0938B828B82EC90E0AB
:10084000958B848B86EC90E0978B868B118E128E25
:10085000138E148E0895A1E21A2EAA1BBB1BFD0154
:100860000DC0AA1FBB1FEE1FFF1FA217B307E4078F
:10087000F50720F0A21BB30BE40BF50B661F771FE7
:10088000881F991F1A9469F76095709580959095C7
:100890009B01AC01BD01CF010895EE0FFF1F059034
:1008A000F491E02D099481E090E0F8940C945804C0
:0408B000F894FFCFEA
:1008B40000000000F6005F008E003D01BF009D00B7
:1008C400B100808386898C909396999C9FA2A5A859
:1008D400ABAEB1B3B6B9BCBFC1C4C7C9CCCED1D31A
:1008E400D5D8DADCDEE0E2E4E6E8EAEBEDEFF0F1BD
:1008F400F3F4F5F6F8F9FAFAFBFCFDFDFEFEFEFF53
:10090400FFFFFFFFFFFFFEFEFEFDFDFCFBFAFAF911
:10091400F8F6F5F4F3F1F0EFEDEBEAE8E6E4E2E003
:10092400DEDCDAD8D5D3D1CECCC9C7C4C1BFBCB9FB
:10093400B6B3B1AEABA8A5A29F9C999693908C89AF
:100944008683807D7A7774706D6A6764615E5B58B4
:1009540055524F4D4A4744413F3C393734322F2D8D
:100964002B28262422201E1C1A1816151311100FCA
:100974000D0C0B0A08070606050403030202020114
:100984000101010101010202020303040506060735
:10099400080A0B0C0D0F1011131516181A1C1E2023
:1009A400222426282B2D2F323437393C3F4144470B
:1009B4004A4D4F5255585B5E6164676A6D70747737
:1009C4007A7D73696E6520776176652C203320709B
:1009D40068617365202F2033206C696E65732C2049
:1009E400706C6F742074657374000D0A00243020D9
:0A09F4003020303B002400200000FA
:107800000C94343C0C94513C0C94513C0C94513CE1
:107810000C94513C0C94513C0C94513C0C94513CB4
:107820000C94513C0C94513C0C94513C0C94513CA4
:107830000C94513C0C94513C0C94513C0C94513C94
:107840000C94513C0C94513C0C94513C0C94513C84
:107850000C94513C0C94513C0C94513C0C94513C74
:107860000C94513C0C94513C11241FBECFEFD8E036
:10787000DEBFCDBF11E0A0E0B1E0ECE9FFE702C060
:1078800005900D92A230B107D9F712E0A2E0B1E065
:1078900001C01D92AD30B107E1F70E942D3D0C945F
:1078A000CC3F0C94003C982F959595959595959582
:1078B000905D8F708A307CF0282F295A8091C0000B
:1078C00085FFFCCF9093C6008091C00085FFFCCF60
:1078D0002093C6000895282F205DF0CF982F809127
:1078E000C00085FFFCCF9093C6000895EF92FF92F1
:1078F0000F931F93EE24FF2487018091C00087FD22
:1079000017C00894E11CF11C011D111D81E4E8164B
:1079100082E4F8068FE0080780E0180770F3E09132
:107920000401F091050109958091C00087FFE9CF1E
:107930008091C6001F910F91FF90EF9008950E94D3
:10794000763C982F8091C00085FFFCCF9093C600B5
:1079500091362CF490330CF09053892F089597555D
:10796000892F08951F930E949F3C182F0E949F3CCF
:107970001295107F810F1F9108951F93182F882350
:1079800021F00E94763C1150E1F71F9108951F935A
:10799000182F0E94763C803249F0809103018F5F5E
:1079A000809303018530C1F01F9108958091C0003C
:1079B00085FFFCCF84E18093C6008091C00085FFE5
:1079C000FCCF1093C6008091C00085FFFCCF80E102
:1079D0008093C6001F910895E0910401F091050184
:1079E00009951F9108950E94763C803241F0809164
:1079F00003018F5F80930301853081F008958091AA
:107A0000C00085FFFCCF84E18093C6008091C00058
:107A100085FFFCCF80E18093C6000895E0910401CA
:107A2000F09105010995089540E951E08823A1F0FE
:107A30002D9A28EE33E0FA013197F1F721503040CA
:107A4000D1F72D9828EE33E0FA013197F1F7215064
:107A50003040D1F7815061F708953F924F925F9285
:107A60006F927F928F929F92AF92BF92CF92DF924E
:107A7000EF92FF920F931F93CF93DF93000080E16B
:107A80008093C4001092C50088E18093C10086E015
:107A90008093C2005098589A259A81E00E94143D24
:107AA00024E1F22E9EE1E92E85E9D82E0FE0C02ECA
:107AB00010E1B12EAA24A394B1E49B2EA6E58A2E50
:107AC000F2E57F2EE0E26E2E79E4572E63E5462E36
:107AD00050E5352E0E94763C8033B1F18133B9F107
:107AE000803409F46FC0813409F476C0823409F41B
:107AF00085C0853409F488C0803531F1823521F1A3
:107B0000813511F1853509F485C0863509F48DC0BC
:107B1000843609F496C0843709F403C1853709F423
:107B200072C1863709F466C0809103018F5F80932C
:107B30000301853079F6E0910401F0910501099582
:107B40000E94763C803351F60E94F33CC3CF0E94E2
:107B5000763C803249F78091C00085FFFCCFF092DF
:107B6000C6008091C00085FFFCCF9092C600809136
:107B7000C00085FFFCCF8092C6008091C00085FFC9
:107B8000FCCF7092C6008091C00085FFFCCF609250
:107B9000C6008091C00085FFFCCF5092C600809146
:107BA000C00085FFFCCF4092C6008091C00085FFD9
:107BB000FCCF3092C6008091C00085FFFCCFB09210
:107BC000C60088CF0E94763C863808F4BDCF0E945C
:107BD000763C0E94F33C7ECF0E94763C803809F4CC
:107BE0009CC0813809F40BC1823809F43CC1883942
:107BF00009F48FC080E00E94C73C6CCF84E10E94F2
:107C0000BD3C0E94F33C66CF85E00E94BD3C0E94D3
:107C1000F33C60CF0E94763C809306010E94763C44
:107C2000809307010E94F33C55CF0E94763C80333D
:107C300009F41DC183E00E94BD3C80E00E94C73C66
:107C400049CF0E94763C809309020E94763C809343
:107C5000080280910C028E7F80930C020E94763C79
:107C6000853409F415C18091080290910902892B8D
:107C700089F000E010E00E94763CF801E85FFE4FDA
:107C800080830F5F1F4F80910802909109020817AF
:107C9000190788F30E94763C803209F045CF809125
:107CA0000C0280FF01C16091060170910701660F0F
:107CB000771F7093070160930601A0910802B091AD
:107CC00009021097C9F0E8E0F1E09B01AD014E0F09
:107CD0005F1FF999FECF32BD21BD819180BDFA9A17
:107CE000F99A2F5F3F4FE417F50799F76A0F7B1F4B
:107CF00070930701609306018091C00085FFFCCF5F
:107D0000F092C6008091C00085FFFCCFB092C60003
:107D1000E1CE83E00E94C73CDDCE82E00E94C73CFA
:107D2000D9CE0E94763C809309020E94763C8093D3
:107D300008028091060190910701880F991F909386
:107D40000701809306010E94763C853409F4A6C0A1
:107D500080910C028E7F80930C020E94763C8032D0
:107D600009F0B8CE8091C00085FFFCCFF092C6002C
:107D7000609108027091090261157105B9F140E046
:107D800050E080910C02A82FA170B82FB27011C0E2
:107D9000BB2309F45CC0E0910601F0910701319624
:107DA000F0930701E09306014F5F5F4F46175707B7
:107DB000E8F4AA2369F3F999FECF209106013091E6
:107DC000070132BD21BDF89A90B58091C00085FFB2
:107DD000FCCF9093C6002F5F3F4F30930701209355
:107DE00006014F5F5F4F4617570718F38091C00099
:107DF00085FDE5CE8091C00085FFF8CFE0CE81E023
:107E00000E94C73C67CE0E94763C803209F08CCE3F
:107E10008091C00085FFFCCFF092C6008091C00029
:107E200085FFFCCFE092C6008091C00085FFFCCFAB
:107E3000D092C6008091C00085FFFCCFC092C600E2
:107E40008091C00085FFFCCFB092C60043CEE09188
:107E50000601F091070194918091C00085FFFCCF4D
:107E60009093C6009CCF80E10E94C73C33CE0E9415
:107E7000763C0E94763C182F0E94763C112309F430
:107E800083C0113009F484C08FE00E94C73C22CE29
:107E900080910C02816080930C02E5CE80910C02EF
:107EA000816080930C0259CF809107018823880F4D
:107EB000880B8A2180930B02809106019091070123
:107EC000880F991F90930701809306018091080203
:107ED00080FF09C080910802909109020196909359
:107EE000090280930802F894F999FECF1127E091D6
:107EF0000601F0910701C8E0D1E08091080290915D
:107F00000902103091F40091570001700130D9F34B
:107F100003E000935700E89500915700017001308D
:107F2000D9F301E100935700E89509901990009169
:107F3000570001700130D9F301E000935700E89534
:107F40001395103498F011270091570001700130FB
:107F5000D9F305E000935700E895009157000170B0
:107F60000130D9F301E100935700E895329602976A
:107F700009F0C7CF103011F00296E5CF112480919F
:107F8000C00085FFB9CEBCCE8EE10E94C73CA2CD19
:0C7F900085E90E94C73C9ECDF894FFCF0D
:027F9C00800063
:040000030000780081
:00000001FF
